S01300004C6964617253797374656D2E73726563A0
S11300000C94BB000C94D8000C94D8000C94D80029
S11300100C94D8000C94D8000C94D8000C94630A67
S11300200C94D8000C94D8000C94D8000C94740947
S11300300C94D8000C94D8000C94D8000C94D800DC
S11300400C94D8000C94D8000C942C090C945009EE
S11300500C94D8000C94D8000C94D8000C94D800BC
S11300600C94D8000C94D8006E616E00696E660022
S113007000407A10F35A00A0724E18090010A5D45B
S1130080E80000E87648170000E40B54020000CAB8
S11300909A3B000000E1F5050000809698000000FE
S11300A040420F000000A08601000000102700005D
S11300B00000E803000000006400000000000A00E3
S11300C0000000000100000000002C76D888DC67E6
S11300D04F0823DFC1DFAE59E1B1B796E5E3E4533E
S11300E0C63AE651997696E8E6C28426EB898C9B5B
S11300F062ED407C6FFCEFBC9C9F40F2BAA56FA5FB
S1130100F490055A2AF75C936B6CF9676DC11BFC7C
S1130110E0E40D47FEF520E6B500D0ED902E030097
S1130120943577050080841E080000204E0A0000E4
S113013000C80C333333330F986E12831141EF8DA3
S11301402114893BE65516CFFEE6DB18D1844B38E3
S11301501BF77C1D901DA4BBE424203284725E2214
S11301608100C9F124ECA1E53D276364696E6F70D9
S1130170737578585B0011241FBECFEFD8E0DEBF43
S1130180CDBF12E0A0E0B1E0EEE9FCE202C00590D0
S11301900D92AA35B107D9F724E0AAE5B2E001C06F
S11301A01D92A634B207E1F70E94BB050C944D16CC
S11301B00C94000084B18C6284B985B1846085B9E3
S11301C08CE58CBD08958EBD80E090E00DC09C014F
S11301D02F5F3F4F893E934030F08FE091E00E94C3
S11301E08B1281E00895C9010DB407FEF0CF8EB5DE
S11301F00895FF920F931F93CF93DF93162F072F2A
S1130200F82EC42FD52F85B18B7F85B986E00E9447
S1130210E30085B1846085B985B18B7F85B982E0BF
S11302200E94E3008F2D0E94E300802F0E94E300D0
S1130230812F0E94E3008D2F0E94E3008C2F0E94E7
S1130240E30085B1846085B9DF91CF911F910F914F
S1130250FF900895DF92EF92FF920F931F93CF9335
S1130260DF93F62EE72ED82EC22FD32F142F052F6F
S113027085B18B7F85B986E00E94E30085B18460F7
S113028085B985B18B7F85B982E00E94E3008D2D0D
S11302900E94E3008E2D0E94E3008F2D0E94E30054
S11302A0802F0E94E300812F0E94E3008D2F0E9483
S11302B0E3008C2F0E94E30085B1846085B9DF914F
S11302C0CF911F910F91FF90EF90DF9008951F93AE
S11302D0CF93DF93C62FD72F182F85B18B7F85B986
S11302E083E00E94E300812F0E94E3008D2F0E948F
S11302F0E3008C2F0E94E30080E00E94E300C82FFB
S113030080E00E94E30095B1946095B92C2F30E011
S1130310322F2227A901482BCA01DF91CF911F91C7
S113032008954F925F926F927F928F929F92AF92B5
S1130330BF92CF92DF92EF92FF92F62EE72ED82E45
S113034085B18B7F85B983E00E94E3008D2D0E94E7
S1130350E3008E2D0E94E3008F2D0E94E30080E0D5
S11303600E94E300482E512C612C712C80E00E94E5
S1130370E300882E912CA12CB12C80E00E94E30094
S1130380C82ED12CE12CF12C80E00E94E30095B121
S1130390946095B9742C66245524442454019924FA
S11303A0882484289528A628B728FE2CED2CDC2C3C
S11303B0CC24C828D928EA28FB28A7019601282B91
S11303C0CA01B901FF90EF90DF90CF90BF90AF903A
S11303D09F908F907F906F905F904F90089598B109
S11303E0907F98B995B1916095B998B1892B88B9E6
S11303F085B18E7F85B987EC90E00197F1F700C055
S1130400000088B1807F88B980E090E00895CF93A0
S1130410C82FCF7082958F700E94EF018C2F0E949D
S1130420EF0180E090E0CF91089595B1926095B985
S11304300E94070285B18D7F85B980E090E0089520
S113044087B18F6087B984B1836084B985B18D7FAA
S113045085B92FEF81EE94E0215080409040E1F780
S113046000C0000083E00E94EF018FE991E401974E
S1130470F1F700C0000083E00E94EF018FE193E0F8
S11304800197F1F700C0000083E00E94EF0182E0D1
S11304900E94EF0188E20E9407028CE00E9407029A
S11304A081E00E9407028FE39FE10197F1F700C00A
S11304B0000086E00E9407028FE39FE10197F1F7B5
S11304C000C00000089581E00E9407028FE39FE1CD
S11304D00197F1F700C0000080E090E00895806883
S11304E00E94070280E090E00895DF92EF92FF926D
S11304F00F931F93CF93DF937C01D62FD72EC0E0A9
S113050015C00C2F10E00E94E20BF801EC58FC4FD0
S11305108083D801AB58BC4F1C9280818A3029F467
S1130520F801EC58FC4F108207C0CF5F0E94170CF3
S1130530882311F0CB3328F3F7013A96B701685FAB
S11305407F4FA7014A5F5F4F97012C5F3F4FC70161
S11305500296DF92DF93FF93EF937F936F935F9302
S11305604F933F932F939F938F93FF92EF928CE13E
S113057091E09F938F9384E793E09F938F930E94DE
S1130580BB122DB73EB72E5E3F4F0FB6F8943EBF59
S11305900FBE2DBFDF91CF911F910F91FF90EF9070
S11305A0DF9008957F928F929F92AF92BF92CF92E5
S11305B0DF92EF92FF920F931F93CF93DF9382E327
S11305C091E00E948B12C4E0D0E0F12CABC00E94F9
S11305D067018C010F3F8FEF180729F48AE391E03C
S11305E00E948B12F12CFF20F1F1CE018F19910999
S11305F083709927892BE1F4B80180E090E00E9490
S1130600920C20E030E04AE754E40E94200C9F93CF
S11306108F937F936F938EE391E09F938F930E94C8
S113062075120F900F900F900F900F900F901BC0AA
S1130630B80180E090E00E94920C20E030E048ECA9
S113064052E40E94200C9F938F937F936F9385E4D1
S113065091E09F938F930E9475120F900F900F90CB
S11306600F900F900F900E3F1F4F09F05AC0FC2EB1
S1130670BE016E5F7F4F072E000C880B990B0E9402
S11306806701182F092FBE016C5F7F4F072E000CE6
S1130690880B990B0E946701E82ED92EBE016A5F70
S11306A07F4F072E000C880B990B0E946701C82E00
S11306B0B92EBE01685F7F4F072E000C880B990B83
S11306C00E946701A82E992EBE01665F7F4F072EF8
S11306D0000C880B990B0E946701882E792E2C96AA
S11306E0BE010D2E000C880B990B0E9467019F938D
S11306F08F937F928F929F92AF92BF92CF92DF920D
S1130700EF920F931F938DE491E09F938F930E9438
S113071075128DB79EB70E960FB6F8949EBF0FBE96
S11307208DBF2296BE010D2E000C880B990B0091F3
S11307306203109163032091640330916503601791
S113074071078207930708F442CF86E691E00E947E
S11307508B12DF91CF911F910F91FF90EF90DF905B
S1130760CF90BF90AF909F908F907F900895CF933C
S1130770DF9384EC0E94510B80E00E94830B84E0A1
S11307800E94830B0E947B0BC1E00EC084EC0E948C
S1130790510B81E00E94830B85EC0E94780B0E9430
S11307A09F0BC82F0E947B0BC0FDF0CF84EC0E94EE
S11307B0510B8FE80E94830B85EC0E94780B0E94FA
S11307C09F0BC82F0E947B0B84EC0E94510B80E985
S11307D00E94830B85EC0E94780B0E949F0BD82FFC
S11307E00E947B0B8C2F90E0982F88278D2BDF9114
S11307F0CF91089520911504309116044091170467
S11308005091180460E070E0CB010E942A018091AD
S1130810150490911604A0911704B09118048093C4
S1130820620390936303A0936403B09365031092EF
S11308305B021092700310926F0310920A041092DC
S11308401404109213040895EF92FF920F931F93D0
S1130850CF93DF93CDB7DEB72C970FB6F894DEBFF6
S11308600FBECDBF80915B0281111EC080916203D7
S113087090916303A0916403B09165038093150480
S113088090931604A0931704B09318040E96A11D18
S1130890B11D8093620390936303A0936403B093A8
S11308A0650381E080935B02E12CF12C5EC06091D2
S11308B06203709163038091640390916503673FC1
S11308C027EE720723E08207910590F00E94FA0355
S11308D00E94630280E00E946F0221E031E04CE05C
S11308E050E061E070E088E791E00E944112FFCFA0
S11308F08701000F111FF801E652FC4F408151811E
S11309000E94F9008091620390916303A0916403B3
S1130910B0916503BC01CD016E5F7F4F8F4F9F4F38
S113092060936203709363038093640390936503FD
S1130930F801E055FC4F408151810E94F9008091FB
S1130940620390916303A0916403B09165030296DE
S1130950A11DB11D8093620390936303A09364036C
S1130960B09365038FEFE81AF80A8091130490910D
S11309701404E816F90608F49ACF80910001811155
S1130980A6C0CE0101960E94940A6091150470914C
S1130990160480911704909118044EEF5FEF0E94A3
S11309A0F90049815A818091150490911604A0910F
S11309B01704B0911804BC01CD016E5F7F4F8F4FB7
S11309C09F4F0E94F9004B815C81809115049091A6
S11309D01604A0911704B0911804BC01CD016C5FFA
S11309E07F4F8F4F9F4F0E94F9004D815E81809110
S11309F0150490911604A0911704B0911804BC0139
S1130A00CD016A5F7F4F8F4F9F4F0E94F9004F8146
S1130A1058858091150490911604A0911704B09103
S1130A201804BC01CD01685F7F4F8F4F9F4F0E9418
S1130A30F90049855A858091150490911604A09176
S1130A401704B0911804BC01CD01665F7F4F8F4F2E
S1130A509F4F0E94F9004B855C858091150490910D
S1130A601604A0911704B0911804BC01CD01645F71
S1130A707F4F8F4F9F4F0E94F900609162037091E6
S1130A80630380916403909165034FEF5FEF0E94CD
S1130A90F9008091620390916303A0916403B09183
S1130AA065039C01AD012E5F3F4F4F4F5F4F209375
S1130AB0620330936303409364035093650360E0DF
S1130AC070E0CB010E942A0181E080930001109222
S1130AD01404109213042C960FB6F894DEBF0FBEC4
S1130AE0CDBFDF91CF911F910F91FF90EF900895AB
S1130AF0CF93DF93EB01A0E0B0E09C01AD01012EA8
S1130B0019E0220F331F441F551F1A95D1F7102DDA
S1130B1060E074E284EF90E00E949D1021502093E5
S1130B20B30081E080936A03D0931204C09311044C
S1130B30E0E7F0E0808182608083DF91CF910895C7
S1130B40109280008BE08093810089EF90E0909375
S1130B5089008093880082E080936F0078940895E0
S1130B6082E08093B00096E09093B100809370008F
S1130B701092B2000895CF93DF93CDB7DEB7C0547F
S1130B80D1090FB6F894DEBF0FBECDBF8E01075E4C
S1130B901F4F8EE0F80111928A95E9F782E08C8F5D
S1130BA083EF9BE09AA389A38CEB8AB98BB1846011
S1130BB08BB98BB188608BB98BB180618BB98BB1E8
S1130BC080648BB98AB180628AB98AB180688AB933
S1130BD00E94DA000E9420020E94250B83E00E94FA
S1130BE0A90B109343040093420485E891E00E940A
S1130BF08B120E94A0050E94B005FFEF20E782E05F
S1130C00F15020408040E1F700C0000021E031E0D5
S1130C104BE050E061E070E086E991E00E9441120F
S1130C2060E070E0CB010E949101609362037093D5
S1130C306303809364039093650360931504709336
S1130C401604809317049093180480913A049091A9
S1130C503B04A0913C04B0913D046C0100E010E021
S1130C6028C0BE016D5C7F4FCE0187960E9475023D
S1130C708730F8F0EFA0F8A409A51AA52BA53CA588
S1130C804DA55EA56FA578A989A99AA90E94D40A41
S1130C900E94D2028BA99CA901E010E0892B49F49F
S1130CA024E030E040E050E060E070E0CB010E94DE
S1130CB02A0101151105A9F280913A0490913B048F
S1130CC0A0913C04B0913D04A6010D2C000C660BD0
S1130CD0770B841B950BA60BB70B843F9140A105A2
S1130CE0B10508F4BECF4FEE5EEB68EF77EE83E01C
S1130CF090E00E94F90068EF77EE83E090E00E94B4
S1130D0067018F3E9E4BC1F10E94630221E031E0F6
S1130D104EE050E061E070E082EA91E00E9441120E
S1130D2088E20E946F0221E031E047E050E061E098
S1130D3070E081EB91E00E94411215C089EB91E0D3
S1130D400E948B124FEE5EEB68EF77EE83E090E04B
S1130D500E94F9002FEF81EE94E0215080409040F2
S1130D60E1F700C0000068EF77EE83E090E00E94B6
S1130D7067018F3E9E4B11F740E050E068EF77EE3D
S1130D8083E090E00E94F900CE01C5960E94940A87
S1130D9064EB70E08BE092E00E947805FFEF25EAB7
S1130DA08EE0F15020408040E1F700C0000064EB89
S1130DB070E080E193E00E9478059FEFE5EAFEE0B1
S1130DC09150E040F040E1F700C000002FEF88EFC1
S1130DD095E1215080409040E1F700C00000CE0131
S1130DE00D960E94940A8D859E85893E974068F0F1
S1130DF0CE0101960E94940A2B853C8521968EADE6
S1130E009FAD21972817390739F50E94630221E025
S1130E1031E04BE050E061E070E08DEC91E00E9445
S1130E20411288E20E946F0221E031E047E050E085
S1130E3061E070E081EB91E00E94411289ED91E064
S1130E400E948B12FFEF21EE84E0F150204080409D
S1130E50E1F700C00000F2CF00916D0310916E0322
S1130E6080916803882339F10E94B70390936E033D
S1130E7080936D0320910A042223D9F04091130436
S1130E805091140460916F03709170039A01220FC2
S1130E90331FF901E055FC4F718360834F5F5F4F4F
S1130EA05093140440931304F901E652FC4F9183C8
S1130EB080831092680380911304909114044497E2
S1130EC010F00E94240480911004811122C18091A9
S1130ED06D0390916E030817190709F41AC10E9453
S1130EE0630280915A02811131C00E946F0221E095
S1130EF031E040E150E061E070E08AEE91E00E9470
S1130F00411288E20E946F0260916D0370916E033A
S1130F1080E090E00E94920C20E030E048EC52E443
S1130F200E94200C9F938F937F936F938BEF91E09C
S1130F309F938F9381E091E09F938F930E94F3118D
S1130F400FB6F894DEBF0FBECDBFC9C0813009F023
S1130F5042C080E00E946F0260916D0370916E0345
S1130F6080E090E00E94920C20E030E048EC52E4F3
S1130F700E94200C9F938F937F936F938BEF91E04C
S1130F809F938F9301E011E01F930F930E94F3113D
S1130F9088E20E946F0260916F037091700380E099
S1130FA090E00E94920C20E030E04AE754E40E9472
S1130FB0200C9F938F937F936F938DE092E09F9388
S1130FC08F931F930F930E94F3110FB6F894DEBF13
S1130FD00FBECDBF84C08230E9F580E00E946F026D
S1130FE021E031E04BE050E061E070E08BE192E021
S1130FF00E94411288E20E946F0260917203709114
S1131000730380E090E00E94920C9B01AC0160E0CD
S113101070E48CE195E40E94200C9F938F937F935E
S11310206F9387E292E09F938F9381E091E09F9387
S11310308F930E94F3119FEFE1EEF4E09150E040B2
S1131040F040E1F700C000000FB6F894DEBF0FBE19
S1131050CDBF45C0833009F042C080E00E946F02DA
S113106021E031E041E150E061E070E088E392E0AA
S11310700E94411288E20E946F0280E48F9380E80C
S11310808F931F921F9260916D0370916E0380E0A5
S113109090E00E94920C20E030E048EC52E40E9480
S11310A0200C9F938F937F936F938AE492E09F9396
S11310B08F9381E091E09F938F930E94F3119FEFB0
S11310C0E3EDF0E39150E040F040E1F700C00000B0
S11310D010925A020FB6F894DEBF0FBECDBF8091B6
S11310E05A02882311F0823029F44E9903C081E01A
S11310F080935A0280916D0390916E0380399140E0
S113110028F44E9903C083E080935A0281E08093CF
S1131110100480915A02813009F09ECE80916D03B3
S113112090916E0385569109029788F464E670E005
S113113088EE93E00E9478058BB184608BB910929D
S1131140700310926F0381E080930A0403C08BB193
S11311508B7F8BB980916D0390916E0381559109BA
S11311608132914020F48BB188608BB908C08091A2
S11311700A0481110E94FA038BB1877F8BB9809195
S11311806D0390916E038F559140049708F060C0F1
S11311908BB1877F8BB98BB180618BB980910A0445
S11311A0882309F459CE80916F0390917003909332
S11311B0730380937203109200010E9424048091AF
S11311C0620390916303A0916403B09165038093DB
S11311D0150490931604A0931704B0931804109266
S11311E05B021092700310926F0310920A0482E063
S11311F080935A0266E970E08BE092E00E947805E1
S11312002FEF82E597E0215080409040E1F700C045
S1131210000066E970E080E193E00E947805EFEF5A
S1131220F2E527E0E150F0402040E1F700C0000083
S113123066E970E086E194E00E9478058FEF92E51C
S1131240E7E081509040E040E1F700C0000004CEA8
S11312508BB18F7E8BB900CE1F920F920FB60F9277
S113126011242F933F934F935F936F937F938F93A7
S11312709F93AF93BF93EF93FF930E94BA0BFF9199
S1131280EF91BF91AF919F918F917F916F915F91FA
S11312904F913F912F910F900FBE0F901F90189573
S11312A01F920F920FB60F9211242F933F934F93D7
S11312B05F936F937F938F939F93AF93BF93EF93BA
S11312C0FF930E94C90BFF91EF91BF91AF919F9142
S11312D08F917F916F915F914F913F912F910F90DB
S11312E00FBE0F901F9018951F920F920FB60F927A
S11312F011242F933F934F935F936F937F938F9317
S11313009F93AF93BF93EF93FF9380913A0490918F
S11313103B04A0913C04B0913D040196A11DB11D74
S113132080933A0490933B04A0933C04B0933D040F
S113133060913A0470913B0480913C0490913D0487
S113134024E130E040E050E00E949D10672B682BC0
S1131350692B19F481E08093680380910A0488233F
S113136009F444C080916F039091700301969093A7
S1131370700380936F0380916F03909170038036A4
S11313809A4E21F41092700310926F0340916F03F0
S1131390509170039A013695279536952795A5ECBB
S11313A0B0E20E94BF10929582958F7089279F703A
S11313B0892764EF71E0869F9001879F300D969F87
S11313C0300D11244217530789F480916D039091D5
S11313D06E03813621E0920748F48536910530F09A
S11313E06CE370E088EE93E00E94780580916B03D3
S11313F090916C03019690936C0380936B0380919E
S11314006B0390916C03883C910519F48BB18F7D2B
S11314108BB980916B0390916C03883E934049F49F
S11314204E9903C08BB180628BB910926C031092F9
S11314306B0380916A038130D1F4809111049091FF
S11314401204019790931204809311048091110463
S113145090911204892B59F41092120410921104E1
S113146010926A03E0E7F0E080818D7F80838091B1
S11314705C0290915D02019690935D0280935C0200
S113148080915C0290915D02039711F41092100414
S113149080915C0290915D02889721F410925D0224
S11314A010925C02FF91EF91BF91AF919F918F9148
S11314B07F916F915F914F913F912F910F900FBE4C
S11314C00F901F9018951F920F920FB60F92112430
S11314D08F9380916A03813019F48BB180588BB952
S11314E08F910F900FBE0F901F9018959DEC899FC0
S11314F0912D112496959695969520E1929FA001A1
S11315001124990F292F220F220F920F891B842B4C
S11315100895982F92959F70990F292F220F220FCB
S1131520920F8F70890F0895CF93DF93EC0180EDB4
S11315300E94510B80E00E94830B81ED0E94780B86
S11315400E94950B0E94890A90E09B878A870E94DB
S1131550950B0E94890A90E0998788870E94950BD1
S11315600E94890A90E09F838E830E94950B0E94BB
S1131570950B0E94890A90E09D838C830E94950BB1
S11315800E94890A90E09B838A830E949F0B0E9499
S1131590890A90E08053984F998388830E947B0B3B
S11315A0CE01DF91CF910895EF92FF920F931F9395
S11315B0CF93DF93CDB7DEB72C970FB6F894DEBF89
S11315C00FBECDBFE9820B832D834F8369878B8741
S11315D080ED0E94510B80E00E94830B80ED0E94FD
S11315E0780B80E00E94830B8B850E94760A0E9410
S11315F0830B89850E94760A0E94830B8F810E9447
S1131600760A0E94830B80E00E94830B8D810E94E6
S1131610760A0E94830B8B810E94760A0E94830BB8
S11316208981805D0E94760A0E94830B0E947B0B55
S11316302C960FB6F894DEBF0FBECDBFDF91CF91CD
S11316401F910F91FF90EF9008951092B90088E4D4
S11316508093B800089594EA9093BC009091BC00E4
S11316609923E4F79091B900987F983011F0903164
S113167091F48093BB0084E88093BC008091BC000B
S11316808823E4F78091B900887F883131F0803471
S113169031F480E0089581E0089580E0089581E0C8
S11316A0089594EA9093BC009091BC009923E4F7C8
S11316B09091B900987F983011F0903191F7809310
S11316C0BB0094E89093BC009091BC009923E4F78C
S11316D09091B900987F903211F0983541F494E9D3
S11316E09093BC009091BC0094FDFCCFDACF089598
S11316F00E942B0B089584E98093BC008091BC0068
S113170084FDFCCF08958093BB0084E88093BC00E3
S11317108091BC008823E4F78091B900887F8832E7
S113172011F081E0089580E0089584EC8093BC007A
S11317308091BC008823E4F78091BB00089584E87D
S11317408093BC008091BC008823E4F78091BB00A7
S113175008959AB198609AB91092C00098EB90934A
S1131760C10096E09093C20090E09093C5008093EE
S1131770C40008958091C600E091E102EF5FEF7725
S1131780E093E1029091E002F0E0EE51FD4F80839E
S1131790089590915F0280915E02981769F0E0913C
S11317A05E02EF5FEF77E0935E02F0E0E05AFD4FF8
S11317B080818093C6000895E1ECF0E080818F7D04
S11317C0808308959091E1028091E0029817D1F30B
S11317D0E091E002EF5FEF77E093E002F0E0EE519A
S11317E0FD4F8081089560915F026F5F6F7720E005
S11317F030E007C0A9014F5F5F4F293E3340A0F49A
S11318009A0190915E026917A9F3E62FF0E0E05A7D
S1131810FD4F808360935F02E1ECF0E080818062A1
S1131820808380E090E0089581E090E00895209125
S1131830E1029091E00281E0291301C080E0089563
S11318400E94340C0C94E60C0E94DF0C58F00E94A9
S1131850D80C40F029F45F3F29F00C94CF0C5111BF
S11318600C941A0D0C94D50C0E94F70C68F3992370
S1131870B1F3552391F3951B550BBB27AA27621788
S11318807307840738F09F5F5F4F220F331F441F95
S1131890AA1FA9F335D00E2E3AF0E0E832D09150C9
S11318A05040E695001CCAF72BD0FE2F29D0660FB6
S11318B0771F881FBB1F261737074807AB07B0E8F9
S11318C009F0BB0B802DBF01FF2793585F4F3AF0FF
S11318D09E3F510578F00C94CF0C0C941A0D5F3F89
S11318E0E4F3983ED4F3869577956795B795F79585
S11318F09F5FC9F7880F911D9695879597F908956D
S1131900E1E0660F771F881FBB1F62177307840708
S1131910BA0720F0621B730B840BBA0BEE1F88F717
S1131920E0950895E89409C097FB3EF4909580955E
S1131930709561957F4F8F4F9F4F9923A9F0F92F91
S113194096E9BB279395F695879577956795B7950F
S1131950F111F8CFFAF4BB0F11F460FF1BC06F5FF5
S11319607F4F8F4F9F4F16C0882311F096E911C007
S1131970772321F09EE8872F762F05C0662371F028
S113198096E8862F70E060E02AF09A95660F771F3C
S1131990881FDAF7880F9695879597F9089597F930
S11319A09F6780E870E060E008959FEF80EC089501
S11319B000240A941616170618060906089500242A
S11319C00A9412161306140605060895092E0394A4
S11319D0000C11F4882352F0BB0F40F4BF2B11F418
S11319E060FF04C06F5F7F4F8F4F9F4F089557FD77
S11319F09058440F551F59F05F3F71F04795880F79
S1131A0097FB991F61F09F3F79F08795089512160F
S1131A1013061406551FF2CF4695F1DF08C01616BB
S1131A2017061806991FF1CF86957105610508946C
S1131A300895E894BB2766277727CB0197F9089583
S1131A40A0E1B0E0E6E2FDE00C94CE107C011B01C5
S1131A506A01FC0117821682838181FF44C39E01BF
S1131A602F5F3F4F3901F7019381F10193FD859178
S1131A7093FF81911F01882309F431C3853239F41E
S1131A8093FD859193FF81911F01853239F4B7014C
S1131A9090E00E94051256016501E5CF10E0512C3B
S1131AA0912CFFE1F915D8F08B3279F038F48032BB
S1131AB079F08332A1F4F92DF0612EC08D3261F0FA
S1131AC0803369F4292D21602DC0392D3260932E85
S1131AD0892D8460982E2AC0E92DE86015C097FCF2
S1131AE02DC020ED280F2A3088F496FE06C03AE077
S1131AF0139F200D1124122F19C08AE0589E200D27
S1131B001124522EE92DE0629E2E10C08E3231F443
S1131B1096FCE5C2F92DF0649F2E08C08C3621F4A2
S1131B20292D2068922E02C0883641F4F10193FDDC
S1131B30859193FF81911F018111B3CF9BEB980F86
S1131B40933020F4992D9061805E07C09BE9980F33
S1131B50933008F066C1992D9F7E96FF16E09F731F
S1131B60992E853619F49064992E08C0863621F48E
S1131B70392F3068932E02C01111115097FE07C0FF
S1131B801C3350F444244394410E27E00BC0183016
S1131B9038F027E017E005C027E09CE3492E02C097
S1131BA0212F412C560184E0A80EB11CF60160815E
S1131BB0718182819381042DA3010E9405116C011E
S1131BC0F981FC87F0FF02C0F3FF06C091FC06C058
S1131BD092FE06C000E205C00DE203C00BE201C0A4
S1131BE000E08C858C7019F001115AC29BC297FEDB
S1131BF010C04C0CFC85F4FF04C08A81813309F4C5
S1131C004A94141474F528E0241578F588E0482ED5
S1131C102CC096FC2AC0812F90E08C159D059CF069
S1131C203CEFC3163FEFD30674F0892D8068982EDD
S1131C300AC0E2E0F0E0EC0FFD1FE10FF11D80812E
S1131C40803319F411501111F4CF97FE0EC04424BF
S1131C504394410E812F90E0C816D9062CF41C1928
S1131C6004C04424439401C010E097FE06C01C1431
S1131C701D0434F4C601019605C085E090E002C05D
S1131C8081E090E001110196112331F0212F30E021
S1131C902F5F3F4F820F931F252D30E0821793074C
S1131CA014F4581A01C0512C892D897049F4552017
S1131CB039F0B70180E290E00E9405125A94F7CF00
S1131CC0002329F0B701802F90E00E94051293FCB5
S1131CD009C0552039F0B70180E390E00E94051255
S1131CE05A94F7CF97FE4CC04601D7FE02C0812C10
S1131CF0912CC60188199909F301E80FF91FFE8791
S1131D00ED87960124193109388B2F87012F10E0B4
S1131D101195019511093FEF8316930629F4B70134
S1131D208EE290E00E940512C814D9044CF08F850D
S1131D3098898815990524F4ED85FE85818101C073
S1131D4080E3F1E08F1A91082D853E852F5F3F4F88
S1131D503E872D87801691062CF0B70190E00E94F3
S1131D600512D9CFC814D90441F49A81963320F4CA
S1131D70953319F43C8534FF81E3B70190E04EC0FC
S1131D808A81813319F09C859F7E9C87B70190E0FE
S1131D900E940512111105C094FC18C085E690E05C
S1131DA017C0B7018EE290E00E9405121E5F82E028
S1131DB001E0080FF301E80FF11D8081B70190E005
S1131DC00E940512802F0113F3CFE6CF85E490E043
S1131DD0B7010E940512D7FC06C0C114D10441F416
S1131DE0EC85E4FF05C0D194C194D1088DE201C013
S1131DF08BE2B70190E00E94051280E32AE0C2164C
S1131E00D1042CF08F5FFAE0CF1AD108F7CFB701D5
S1131E1090E00E940512B701C601C0960E94051207
S1131E2054C1833631F0833779F0833509F056C0D5
S1131E3020C0560132E0A30EB11CF60180818983D3
S1131E4001E010E0630112C05601F2E0AF0EB11CD4
S1131E50F601C080D18096FE03C0612F70E002C0FD
S1131E606FEF7FEFC6010E94E8118C01F92DFF7717
S1131E7014C0560122E0A20EB11CF601C080D1802C
S1131E8096FE03C0612F70E002C06FEF7FEFC601C2
S1131E900E94DD118C01F92DF0689F2EF3FD1AC00C
S1131EA0852D90E008171907A8F4B70180E290E0A7
S1131EB00E9405125A94F4CFF60197FC859197FE7F
S1131EC081916F01B70190E00E94051251105A945C
S1131ED0015011090115110579F7F7C0843611F085
S1131EE0893661F5560197FE09C024E0A20EB11CA3
S1131EF0F60160817181828193810AC0F2E0AF0EA4
S1131F00B11CF60160817181072E000C880B990BBE
S1131F10F92DFF769F2E97FF09C0909580957095B7
S1131F2061957F4F8F4F9F4FF0689F2E2AE030E0DE
S1131F30A3010E94D412C82EC6183FC0092D8537AC
S1131F4021F40F7E2AE030E01DC0097F8F3691F026
S1131F5018F4883559F0C3C0803719F0883711F068
S1131F60BEC0006104FF09C0046007C094FE08C03D
S1131F70066006C028E030E005C020E130E002C081
S1131F8020E132E0560107FF09C084E0A80EB11C2D
S1131F90F601608171818281938108C0F2E0AF0E05
S1131FA0B11CF6016081718180E090E0A3010E9480
S1131FB0D412C82EC6180F77902E96FE0BC0092D8A
S1131FC00E7FC11650F494FE0AC092FC08C0092D7D
S1131FD00E7E05C0DC2C092D03C0DC2C01C0D12EE3
S1131FE004FF0DC0FE01EC0DF11D8081803311F45E
S1131FF0097E09C002FF06C0D394D39404C0802F85
S1132000867809F0D39403FD11C000FF06C01C2D8F
S1132010D51480F4150D1D190DC0D51458F4B7014D
S113202080E290E00E940512D394F7CFD51410F407
S11320305D1801C0512C04FF10C0B70180E390E08B
S11320400E94051202FF17C001FD03C088E790E05B
S113205002C088E590E0B7010CC0802F867859F063
S113206001FF02C08BE201C080E207FD8DE2B701EF
S113207090E00E940512C11638F4B70180E390E0A5
S11320800E9405121150F7CFCA94F301EC0DF11D13
S11320908081B70190E00E940512C110F5CF15C0F0
S11320A0F4E0F51560F584E0581A93FE1FC00111A1
S11320B027C02C8523FF2AC008E610E0392D307193
S11320C0932EF8018491811124C0552009F4E4CCA5
S11320D0B70180E290E00E9405125A94F6CFF7010E
S11320E08681978126C08FEF9FEF23C0B70180E2DE
S11320F090E00E9405125A945110F8CFD8CF512C79
S1132100B701802F90E00E940512D3CF0CE610E0B7
S1132110D5CF91108052B70190E00E9405120F5F55
S11321201F4FCFCF23E0251510F483E0BDCF512CF2
S1132130C0CF6096E2E10C94EA10A1E21A2EAA1B29
S1132140BB1BFD010DC0AA1FBB1FEE1FFF1FA21763
S1132150B307E407F50720F0A21BB30BE40BF50B60
S1132160661F771F881F991F1A9469F760957095E9
S1132170809590959B01AC01BD01CF010895A29F6C
S1132180B001B39FC001A39F700D811D1124911D47
S1132190B29F700D811D1124911D08952F923F92BD
S11321A04F925F926F927F928F929F92AF92BF9263
S11321B0CF92DF92EF92FF920F931F93CF93DF930F
S11321C0CDB7DEB7CA1BDB0B0FB6F894DEBF0FBE6C
S11321D0CDBF09942A88398848885F846E847D84B9
S11321E08C849B84AA84B984C884DF80EE80FD80BB
S11321F00C811B81AA81B981CE0FD11D0FB6F89431
S1132200DEBF0FBECDBFED010895283008F027E0F2
S11322103327DA01990F311D87FD9160009661051E
S1132220710539F432602E5F3D9330E32A95E1F76E
S113223008959F3F30F080387105610509F03C5FD7
S11322403C5F3D93913008F08068911DDF93CF93FC
S11322501F930F93FF92EF92192F987F9695E92F72
S113226096959695E90FFF27E653FF4F9927332755
S1132270EE24FF24A701E70105900894079428F4AD
S1132280360FE71EF81E491F511D660F771F881F62
S1132290991F0694A1F70590079428F4E70EF81EF9
S11322A0491F561FC11D770F881F991F661F06946B
S11322B0A1F70590079428F4F80E491F561FC71F6D
S11322C0D11D880F991F661F771F0694A1F70590EB
S11322D0079420F4490F561FC71FD81F990F661F74
S11322E0771F881F0694A9F784911095177041F001
S11322F0D695C79557954795F794E7941A95C1F7DE
S1132300E0E7F0E068941590159135916591959109
S113231005907FE27395E118F10A430B560BC90B44
S1132320D009C0F7E10CF11E431F561FC91FD01D71
S11323307EF4703311F48A95E6CFE894015030F0BE
S1132340080F0AF40027021708F4202F2395022F00
S11323507A3328F079E37D932A95E9F710C07D93C9
S11323602A9589F606949795679537951795179446
S1132370E118F10A430B560BC90BD00998F02395C9
S11323807E9173957A3308F070E37C932013B8F749
S11323907E9170617D9330F0839571E37D9370E35A
S11323A02A95E1F71124EF90FF900F911F91CF919F
S11323B0DF91992787FD90950895FC010590615060
S11323C070400110D8F7809590958E0F9F1F089547
S11323D0FC016150704001900110D8F780959095F0
S11323E08E0F9F1F0895A0E0B0E0E9EFF1E10C9497
S11323F0DE10AE01475F5F4F6F8178858D819E81CE
S11324000E94200DE2E00C94FA100F931F93CF93D7
S1132410DF93FB01238121FD03C08FEF9FEF2CC0CD
S113242022FF16C046815781248135814217530704
S113243044F4A081B1819D012F5F3F4F31832083FC
S11324408C93268137812F5F3F4F3783268314C0B7
S11324508B01EC01FB010084F185E02D0995892BAA
S1132460E1F6D80116968D919C91179701961796CF
S11324709C938E931697CE01DF91CF911F910F916C
S11324800895A0E0B0E0E7E4F2E10C94D4105B011D
S11324904A017901D90113962C9121FF1DC0C0E096
S11324A0D0E0C815D905D9F08C016C01CA0CDB1C2D
S11324B0C8010C151D0571F00F5F1F4FD701189649
S11324C0ED91FC911997B701DC018C910995892B49
S11324D079F305C02196E5CF80E090E001C0CE01FC
S11324E0CDB7DEB7ECE00C94F010A0E0B0E0EBE781
S11324F0F2E10C94DE10AE014B5F5F4FFA01619183
S11325007191AF0180914204909143040E94200D87
S1132510E2E00C94FA100F931F93CF93DF93E091B2
S11325204204F0914304238121FF1BC08C01D0E0BD
S1132530C0E0F80181918F016091420470914304DD
S1132540DB011896ED91FC911997882331F00995D8
S1132550892B79F3DFEFCFEFECCF8AE00995892B54
S113256019F08FEF9FEF02C08D2F9C2FDF91CF9139
S11325701F910F910895AEE0B0E0E1ECF2E10C940C
S1132580DE1085E08C838B899C899A838983AE01D4
S1132590495E5F4F6D897E89CE0101960E94CE14FB
S11325A02E96E2E00C94FA10FA01AA27283051F191
S11325B0203181F1E8946F936E7F6E5F7F4F8F4F70
S11325C09F4FAF4FB1E03ED0B4E03CD0670F781FCF
S11325D0891F9A1FA11D680F791F8A1F911DA11DB4
S11325E06A0F711D811D911DA11D20D009F46894ED
S11325F03F912AE0269F11243019305D3193DEF695
S1132600CF010895462F4770405D4193B3E00FD04A
S1132610C9F7F6CF462F4F70405D4A3318F0495D35
S113262031FD4052419302D0A9F7EACFB4E0A69518
S11326309795879577956795BA95C9F7009761053A
S1132640710508959B01AC010A2E06945795479590
S113265037952795BA95C9F7620F731F841F951F85
S1132660A01D089520FD09C0FC0123FD05C022FF23
S113267002C07383628351834083089544FD17C06D
S113268046FD17C0AB01BC01DA01FB01AA0FBB1F59
S1132690EE1FFF1F1094D1F74A0F5B1F6E1F7F1FA1
S11326A0CB01BA01660F771F881F991F09C033E059
S11326B001C034E0660F771F881F991F3150D1F78E
S11326C0620F711D811D911D08950F931F93CF9368
S11326D0DF938C01C8010E94F315EC0197FD08C03B
S11326E00E94DF15892BB1F7B801CE010E94311683
S11326F0CE01DF91CF911F910F9108958F929F92F8
S1132700AF92BF92EF92FF920F931F93CF93DF93F9
S11327108C01D62F7A01B22E0E94F3159C01332727
S11327202B32310531F02D32310561F48B2D806867
S1132730B82ED15011F480E068C0C8010E94F3158E
S113274097FDF9CFCB2DCD7F2B2D207309F5803349
S1132750F9F4AA24AA94AD0E09F443C0C8010E9456
S1132760F31597FD3EC09C012F7D33272835310595
S113277049F4C264D250A9F1C8010E94F31597FF2D
S113278007C02FC0B6FE02C0C26001C0C261DA2D0C
S1132790812C912C540120ED280F283080F0C4FFA7
S11327A004C0B8010E94311619C02A3040F0C6FF97
S11327B0F8CF2F7D3FEE320F363098F727504C2F4D
S11327C0C501B4010E943E134B015C01C260D150AB
S11327D059F0C8010E94F31597FFDDCFC1FD04C075
S11327E0AACF812C912C5401C7FF08C0B094A094A7
S11327F090948094811C911CA11CB11C2C2FB501B8
S1132800A401C7010E94321381E0DF91CF911F918F
S11328100F91FF90EF90BF90AF909F908F9008958D
S1132820A0E2B0E0E6E1F4E10C94D1105C01962E54
S11328307A01F9018E010F5F1F4F680180E2D80110
S11328401D928A95E9F7D50113968C9080E090E06B
S1132850612C712C30E061E070E083FC259183FEF3
S113286021918F01522E211103C080E090E092C08B
S11328702E3511F4009751F1432F50E048175907B2
S11328803CF42D3559F12D3219F4772009F103C0A8
S1132890772009F46AC0452D469546954695D6019C
S11328A0A40FB11D452D47708B0102C0000F111FED
S11328B04A95E2F7A8015C91452B4C93651459F0B5
S11328C0561410F45394E7CF5A94E5CF31E004C082
S11328D07724739401C0712C0196BFCF772019F02F
S11328E08E8180628E83311103C08824839417C043
S11328F0F6019E012F5D3F4F8081809581932E17B5
S11329003F07D1F7F2CFE114F10429F0D7018C93FA
S1132910F70131967F019A94812C9920F9F0C50131
S11329200E94F31597FD18C0FC01FF2723E0F595DD
S1132930E7952A95E1F7EC0DFD1D208130E0AC010F
S11329404770552702C0359527954A95E2F720FD33
S1132950DACFB5010E943116811087CFE114F1045A
S113296011F0D7011C92C80115C0422F4695469517
S11329704695D601A40FB11D422F47708B0102C0AA
S1132980000F111F4A95E2F7A8015C91452B4C9367
S1132990622EA2CFA096EFE00C94ED10A0E0B0E080
S11329A0E4EDF4E10C94D1106C01EB015A01FC014B
S11329B017821682512CF601E380FE01E3FC859117
S11329C0E3FE8191182FEF01882309F4EEC090E013
S11329D00E94DF15892B21F0C6010E946513EBCFFD
S11329E0153241F4FE01E3FC1591E3FE1191EF0170
S11329F0153281F4C6010E94F31597FDD4C0412F0E
S1132A0050E09C01332724173507A9F2B6010E9430
S1132A103116CBC01A3239F4E3FC1591E3FE11915F
S1132A20EF0101E001C000E0F12C20ED210F2A307C
S1132A3080F402606F2D70E080E090E040E20E943C
S1132A403E13F62EFE01E3FC1591E3FE1191EF0116
S1132A50ECCF01FF03C0F11003C0A7C0FF24FA9418
S1132A60183619F01C3651F010C0FE01E3FC159124
S1132A70E3FE1191EF01183641F408600460FE0191
S1132A80E3FC1591E3FE1191EF01112309F48DC0CC
S1132A90612F70E08AE691E00E94E815892B09F421
S1132AA084C000FD07C0F50180809180C5010296B5
S1132AB05C0102C0812C912C1E3651F4F601468132
S1132AC0578160E070E0202FC4010E94321373CF5D
S1132AD01336A9F401FD02C0FF24F394C6010E9439
S1132AE0F31597FD60C08114910429F0F4018083EB
S1132AF0C40101964C01FA94F110F0CF50C01B357B
S1132B0059F49E01A4016F2DC6010E941014EC011A
S1132B10892B09F044C03EC0C6010E94651397FD8D
S1132B2042C01F3661F128F4143639F1193651F1D7
S1132B3028C0133771F0153701F123C081149104B3
S1132B4029F0F4016082C40101964C01FA94FF203B
S1132B5071F0C6010E94F3153C0197FD08C00E9464
S1132B60DF15892B59F3B601C3010E943116811474
S1132B709104A9F0F401108212C0006203C0006144
S1132B8001C00064202FA4016F2DC6010E947E1392
S1132B90811105C0F6018381807329F406C000FD0C
S1132BA00ACF539408CF552019F0852D90E002C028
S1132BB08FEF9FEFCDB7DEB7EFE00C94ED109111DE
S1132BC00C944A16803219F089508550C8F708953C
S1132BD0FC010590061621F00020D9F7C0010895E4
S1132BE03197CF010895CF93DF93EC012B8120FF20
S1132BF033C026FF0AC02F7B2B838E819F810196D1
S1132C009F838E838A8190E029C022FF0FC0E881D0
S1132C10F9818081082E000C990B009719F4206229
S1132C202B831AC03196F983E8830EC0EA85FB85AD
S1132C30099597FF09C02B81019611F080E201C02C
S1132C4080E1822B8B8308C02E813F812F5F3F4F11
S1132C503F832E83992702C08FEF9FEFDF91CF919F
S1132C600895FB01238120FF12C026FD10C08F3F71
S1132C703FEF930761F082832F7D206423832681B5
S1132C8037812150310937832683992708958FEF9F
S1112C909FEF0895992788270895F894FFCFA1
S1132C9E01000000020000000015020000000053B5
S1132CAE50492054696D656F75740D002534642D7B
S1132CBE25642D25645F25642D25642D256420252A
S1132CCE6400434F4E5441435400454E4400252E58
S1132CDE326C660A00252E326C662C200053544149
S1132CEE52542025642D25642D25645F25642D25DD
S1132CFE642D25640A005452414E534645522043D6
S1132D0E4F4D504C455445004D656D6F727920669C
S1132D1E756C6C2E00554152542073746172746537
S1132D2E642E2E2E0D005374617274696E672E2EEE
S1132D3E2E006D656D6F727920646F65736E2774E6
S1132D4E00776F726B203A28006D656D6F72792073
S1132D5E646F65736E277420776F726B00525443E1
S1132D6E20646F65736E27740052544320646F653C
S1132D7E736E277420776F726B00537461727420B4
S1132D8E6D6561737572696E673F00446973746132
S1132D9E6E63653A20252E326C66206D0054696D83
S1132DAE653A20252E326C662073004461746120CE
S1132DBE73617665642E0053706565643A20252E22
S1132DCE326C66206D2F730057616C6C20646973CE
S1132DDE74616E6365206C6F7700252E326C666DA0
S10D2DEE203C20252E326C666D0097
S9030000FC
